:020000040000fa
:080000000002040000000000f2
:020000040000fa
:040008004a030000a7
:020000040000fa
:04000c004a030000a3
:020000040000fa
:040010004a0300009f
:020000040000fa
:040014004a0300009b
:020000040000fa
:040018004a03000097
:020000040000fa
:04001c004a03000093
:020000040000fa
:040020004a0300008f
:020000040000fa
:040024004a0300008b
:020000040000fa
:040028004a03000087
:020000040000fa
:04002c004a03000083
:020000040000fa
:040030004a0300007f
:020000040000fa
:040034004a0300007b
:020000040000fa
:040038004a03000077
:020000040000fa
:04003c004a03000073
:020000040000fa
:040040004a0300006f
:020000040000fa
:040044004a0300006b
:020000040000fa
:040048004a03000067
:020000040000fa
:04004c004a03000063
:020000040000fa
:040050004a0300005f
:020000040000fa
:04005400fe020000a8
:020000040000fa
:04005800cc020000d6
:020000040000fa
:04005c004a03000053
:020000040000fa
:040060004a0300004f
:020000040000fa
:040064004a0300004b
:020000040000fa
:040068004a03000047
:020000040000fa
:04006c004a03000043
:020000040000fa
:040070004a0300003f
:020000040000fa
:040074004a0300003b
:020000040000fa
:040078004a03000037
:020000040000fa
:04007c004a03000033
:020000040000fa
:040080004a0300002f
:020000040000fa
:040084004a0300002b
:020000040000fa
:040088004a03000027
:020000040000fa
:04008c004a03000023
:020000040000fa
:040090004a0300001f
:020000040000fa
:040094004a0300001b
:020000040000fa
:040098004a03000017
:020000040000fa
:04009c004a03000013
:020000040000fa
:0400a0004a0300000f
:020000040000fa
:0400a4004a0300000b
:020000040000fa
:0400a8004a03000007
:020000040000fa
:0400ac004a03000003
:020000040000fa
:0400b0004a030000ff
:020000040000fa
:0400b4004a030000fb
:020000040000fa
:0400b8004a030000f7
:020000040000fa
:0400bc004a030000f3
:020000040000fa
:0400c0004a030000ef
:020000040000fa
:0400c4004a030000eb
:020000040000fa
:0400c8004a030000e7
:020000040000fa
:0400cc004a030000e3
:020000040000fa
:0400d0004a030000df
:020000040000fa
:0400d4004a030000db
:020000040000fa
:0400d8004a030000d7
:020000040000fa
:0400dc004a030000d3
:020000040000fa
:0400e0004a030000cf
:020000040000fa
:0400e4004a030000cb
:020000040000fa
:0400e8004a030000c7
:020000040000fa
:0400ec004a030000c3
:020000040000fa
:0400f0004a030000bf
:020000040000fa
:0400f4004a030000bb
:020000040000fa
:0400f8004a030000b7
:020000040000fa
:0400fc004a030000b3
:020000040000fa
:040100004a030000ae
:020000040000fa
:040104004a030000aa
:020000040000fa
:040108004a030000a6
:020000040000fa
:04010c004a030000a2
:020000040000fa
:040110004a0300009e
:020000040000fa
:040114004a0300009a
:020000040000fa
:040118004a03000096
:020000040000fa
:04011c004a03000092
:020000040000fa
:040120004a0300008e
:020000040000fa
:040124004a0300008a
:020000040000fa
:040128004a03000086
:020000040000fa
:04012c004a03000082
:020000040000fa
:040130004a0300007e
:020000040000fa
:040134004a0300007a
:020000040000fa
:040138004a03000076
:020000040000fa
:04013c004a03000072
:020000040000fa
:040140004a0300006e
:020000040000fa
:040144004a0300006a
:020000040000fa
:040148004a03000066
:020000040000fa
:04014c004a03000062
:020000040000fa
:040150004a0300005e
:020000040000fa
:040154004a0300005a
:020000040000fa
:040158004a03000056
:020000040000fa
:04015c004a03000052
:020000040000fa
:040160004a0300004e
:020000040000fa
:040164004a0300004a
:020000040000fa
:040208004a030000a5
:020000040000fa
:04020c004a030000a1
:020000040000fa
:040210004a0300009d
:020000040000fa
:040214004a03000099
:020000040000fa
:040218004a03000095
:020000040000fa
:04021c004a03000091
:020000040000fa
:040220004a0300008d
:020000040000fa
:040224004a03000089
:020000040000fa
:040228004a03000085
:020000040000fa
:04022c004a03000081
:020000040000fa
:040230004a0300007d
:020000040000fa
:040234004a03000079
:020000040000fa
:040238004a03000075
:020000040000fa
:04023c004a03000071
:020000040000fa
:040240004a0300006d
:020000040000fa
:040244004a03000069
:020000040000fa
:040248004a03000065
:020000040000fa
:04024c004a03000061
:020000040000fa
:040250004a0300005d
:020000040000fa
:04025400fe020000a6
:020000040000fa
:04025800cc020000d4
:020000040000fa
:04025c004a03000051
:020000040000fa
:040260004a0300004d
:020000040000fa
:040264004a03000049
:020000040000fa
:040268004a03000045
:020000040000fa
:04026c004a03000041
:020000040000fa
:040270004a0300003d
:020000040000fa
:040274004a03000039
:020000040000fa
:040278004a03000035
:020000040000fa
:04027c004a03000031
:020000040000fa
:040280004a0300002d
:020000040000fa
:040284004a03000029
:020000040000fa
:040288004a03000025
:020000040000fa
:04028c004a03000021
:020000040000fa
:040290004a0300001d
:020000040000fa
:040294004a03000019
:020000040000fa
:040298004a03000015
:020000040000fa
:04029c004a03000011
:020000040000fa
:0402a0004a0300000d
:020000040000fa
:0402a4004a03000009
:020000040000fa
:0402a8004a03000005
:020000040000fa
:0402ac004a03000001
:020000040000fa
:0402b0004a030000fd
:020000040000fa
:0402b4004a030000f9
:020000040000fa
:0402b8004a030000f5
:020000040000fa
:0402bc004a030000f1
:020000040000fa
:0402c0004a030000ed
:020000040000fa
:0402c4004a030000e9
:020000040000fa
:0402c8004a030000e5
:020000040000fa
:0402cc004a030000e1
:020000040000fa
:0402d0004a030000dd
:020000040000fa
:0402d4004a030000d9
:020000040000fa
:0402d8004a030000d5
:020000040000fa
:0402dc004a030000d1
:020000040000fa
:0402e0004a030000cd
:020000040000fa
:0402e4004a030000c9
:020000040000fa
:0402e8004a030000c5
:020000040000fa
:0402ec004a030000c1
:020000040000fa
:0402f0004a030000bd
:020000040000fa
:0402f4004a030000b9
:020000040000fa
:0402f8004a030000b5
:020000040000fa
:0402fc004a030000b1
:020000040000fa
:040300004a030000ac
:020000040000fa
:040304004a030000a8
:020000040000fa
:040308004a030000a4
:020000040000fa
:04030c004a030000a0
:020000040000fa
:040310004a0300009c
:020000040000fa
:040314004a03000098
:020000040000fa
:040318004a03000094
:020000040000fa
:04031c004a03000090
:020000040000fa
:040320004a0300008c
:020000040000fa
:040324004a03000088
:020000040000fa
:040328004a03000084
:020000040000fa
:04032c004a03000080
:020000040000fa
:040330004a0300007c
:020000040000fa
:040334004a03000078
:020000040000fa
:040338004a03000074
:020000040000fa
:04033c004a03000070
:020000040000fa
:040340004a0300006c
:020000040000fa
:040344004a03000068
:020000040000fa
:040348004a03000064
:020000040000fa
:04034c004a03000060
:020000040000fa
:040350004a0300005c
:020000040000fa
:040354004a03000058
:020000040000fa
:040358004a03000054
:020000040000fa
:04035c004a03000050
:020000040000fa
:040360004a0300004c
:020000040000fa
:040364004a03000048
:020000040000fa
:10040000cfa520000e7f24000e0188000000000010
:10041000000020000000e000020032000001200087
:1004200020028800140007009c0007000000e00084
:1004300003003a00e01c2200010020000200370007
:100440000000200001002000810f70000100320038
:1004500014000700000020000000e000020032004d
:1004600000000200000000009a1b020000000000d3
:100470000040da000000fe004440a900e000200037
:100480000000e0000300320000002000a00188000e
:100490004440a800000006008a1f78008b1f7800e7
:1004a0000000060091018800800478000000eb0045
:1004b0001a003700e284440032a0b4009905ba0063
:1004c000e284440032a0b4009906ba00e2844400f9
:1004d00032a0b4000006eb00476fde00fd07b2005b
:1004e000636ce10003003a00ebff07000000eb0043
:1004f0000a003700606ce10004003a00005deb0088
:100500008b05e900fdff3e00040037006168e10053
:10051000010032000086eb000b00070019c7ba008b
:100520001905ba000e04e00003003a000a00e000da
:10053000e0ff3a0000000600fe07b2009e018800be
:100540008a047800f5ff3700395dba008b05e900b1
:100550000c003200295dba008b05e900080032006a
:100560000c00e00003003a00e284440032a0b40032
:10057000f5ff370019ddba008b05e900faff3a00f4
:100580008904e800e184440032a0b40000000600c1
:100590004a1c040000000000809fbe000000fa001a
:1005a0008580a9001140800000408000808f5000ad
:1005b0000e00320010408000e1802000808040006a
:1005c000914078008180fb00211188000000e80044
:1005d0001040880011408000a00f2000808f500044
:1005e00003003a000228ef00010037009580a900bf
:1005f0000080fa004f00be0000400600809fbe0051
:10060000821f78000000fa008560a9002040800069
:100610000000e80031408000810f500007003200e8
:1006200021408000900f2000808f500007003a008a
:10063000304080000000e00004003a0050168000c6
:1006400000c0a100501688000e0037002240800034
:10065000301180008040780080902000020040002f
:1006600001487800204080000000e8002040880019
:1006700021408000a00f2000808f500001003a0030
:100680000428ef000080fa004f0178004f00be0000
:10069000004006000040da000000fe0000000500f7
:1006a000839f68000100e00002003d006000100030
:1006b000e08018000300e00002003d00600111002e
:1006c000e08119005f0007004f00e00002003b00de
:1006d00060001000e08018000000060014002000f8
:1006e000bd033700f4ff2f00bb0337000001be003d
:1006f0003f0007000470a70003f0a1006509b100e6
:10070000160032000d0035006828e10006003500b3
:10071000f0ff2f00f1ff27000300e00013003b0073
:100720000100280000000500000040008180480012
:100730008502e900fcff3a0008003700f88f42000c
:1007400002003c008000eb00000005008100d100a9
:100750000080d3008502e800fcff3a000300e000bf
:1007600002003b0060001000e0801800000006005e
:100770000001be001e0007000470a70003f0a100e6
:1007800003f8a30013003a006509b100100032001d
:10079000090035006928e100020035000100280049
:1007a0000000050000004000818048008502e9004b
:1007b000fcff3a0000000600f88f420005003500fb
:1007c0008100d1000080d3008502e800fcff3a00e0
:1007d000000006008000eb00000005004f89de00ed
:1007e00082017800970337006011b800a503370035
:1007f000c70ade00f107b200f50fb20008003200b0
:10080000e1cf4200020032000170a0002400050088
:10081000810f70000100320004080500440005004b
:10082000810f700002003a00140005008502e90003
:100830000000400081c04800fcff3b000170a000a8
:10084000240005006022b800060220000000d0004d
:100850008180d2000482d2008582d2000000a000f4
:100860000202520083825a00030031000202420059
:1008700083824a000000a1000603e900f3ff3a006a
:100880000000060007f82700078361000638e10032
:1008900004003a00f7072000878361008703710096
:1008a00001003a0003f0a200889fbe008a9fbe00ac
:1008b0008c9fbe00470ade000480a100c71ade003c
:1008c0000580a1000700280007856000878561007a
:1008d000f70f20000720e1009e0032000728e1000a
:1008e0009c003200010678000400e000b4003200f1
:1008f000f7072000878060000170a0000500e0007d
:10090000c0003200f7072000878161000370a0005b
:10091000050652000f003a000b50e1000b003200b8
:100920000308e10002003a000200e1007e0032000c
:100930000204500083845800040031000001fd00cf
:100940008101fd008402fd008a05fd006044b800bd
:10095000210037000520e10005003d000001fd00f9
:100960008101fd008402fd008a05fd00050652009c
:100970007a60e100050035000170a1004722dd002a
:10098000848070008a807000630037006044b80083
:10099000ef02660007ff2f00070666000500e00073
:1009a00006003400f08312008714dd000511de001c
:1009b000071bdd00060171008519de007060e10093
:1009c00005003500090478008204780003017800ee
:1009d0008001eb00700656000b50e10003003a0066
:1009e00002004000838048000400370060041400c7
:1009f000e0841c0002005800838058000188a30096
:100a0000060032008100d1000080d3008984d30029
:100a10000884d3000402e800270037000178a3000f
:100a200025003a000100e000030032008186cf007b
:100a3000698656000a0037008c0020000000e000a4
:100a400004003a0009007800880478000004eb00f4
:100a5000700252008086cf000d0646000c06e900a9
:100a60007060e10006003500800078000900780021
:100a7000880478000004eb007006560070025200f3
:100a80000c00e0000c0034008c08dd00f0031600c0
:100a90000703de00868070000c00dd00074bde00df
:100aa000060070008c4cdd000743de008684740075
:100ab0000c44dd000c0252006120e10020003500f2
:100ac000610160000700280087816400f7ff2700ac
:100ad00087836400070374000300e000060032000f
:100ae00082037300040032000000e800e080480048
:100af0000188a3000e003a00f70f20000720e10054
:100b00004a003d000170a1004722dd008100720013
:100b10008a8070000000be004f06be004f05be0078
:100b20004f04be00000006006000b800faff370066
:100b30008100d1000080d3000402e800eeff3700fe
:100b40000401780089017400a10107008a80700007
:100b5000f1ff3700f7010700070278000001fd00f0
:100b60008101fd00f3010700870278008503720010
:100b70000778a300040032000001fd008101fd00a0
:100b800006020700e4ff3700850362000768a30040
:100b9000080032000b50e10003003200f0ff2f008c
:100ba000f1ff2700dcff37000001fd008101fd009f
:100bb000d9ff37000468a300d7ff3200faff3700df
:100bc000f8ff2700888360000b003a000000e00077
:100bd00009003a008303640082837300020032003c
:100be0000200be00ccff37000b50e100ceff3a0000
:100bf0000200be00c8ff370014002000810064001e
:100c00003eff3700f8ff27008883610004003a00a8
:100c10000200e00002003a008c007800beff3700be
:100c2000150020008301640039ff370001f8270018
:100c30000000200081007500b7ff3700889fbe00cc
:100c40008a9fbe008c9fbe001b0020000202be00d7
:100c50000586680006002800060666004709de00d3
:100c6000f20fb200820032000243e800800032003e
:100c7000c729de00f30fb2007d0032000343e80015
:100c80007b003200f107b2000170a000f507b2004e
:100c90000570a000c708dd004903de0086807000f3
:100ca0004700dd00c72add004923de00868272008e
:100cb0004722dd00030551000403500085835800de
:100cc0000300310000004000818048000a05e9006f
:100cd0008c1f78008a9fbe00040050008580580059
:100ce0000402420085824a000000400081804800e2
:100cf0000005eb000004be006033b8000406be002f
:100d00000d48e10056003100110009004dccd8001b
:100d10000c01b8000d02b8008481410060824a00d5
:100d20008283530003045c0084845c0060055d00e2
:100d30000a00e00025003a00800578000d40e1003f
:100d40004900310088007800070078001100090090
:100d50004d88d8000c01b8000d02b8008481410014
:100d600060824a006003110083835b0004045c001e
:100d7000e0845c000900e00021003a004f01be0061
:100d80000300e0002b003200e3016000070673005f
:100d90008c81710001003200640070004200de00ae
:100da0004e5edd000c007000c258de0001e0a000c5
:100db00083010700cf017800818071004f06be00db
:100dc0004f05be004f04be00000006008c834300a8
:100dd0000d044c00e0844c0060054d000000e9006b
:100de0000a00e000d4ff32008c8343000d044c0065
:100df000e0844c0060054d000000e900ceff3700a4
:100e00000c0343008d834b0060044c00e0844c00d5
:100e10000000e9000900e000d8ff32000c034300a5
:100e20008d834b0060044c00e0844c000000e9001e
:100e3000d2ff37004200de004e5edd000c00700085
:100e4000c258de0001e0a000cf0178000300e000fe
:100e5000daff320060001000e0801800d7ff370092
:100e6000f0ff2f00aaff3700f0ff2f00b9ff370077
:100e70000404be002f010700870678000004fd006f
:100e80008104fd002b010700078366000678a3009c
:100e9000030032000960a7000800be002c003700e4
:100ea0000d78a300020032000800be0028003700c1
:100eb0000778a30026003a0001f0a10009f0a10084
:100ec0000668a30003003200f1ff2700f0ff2f00a7
:100ed000baff37000d68a300030032000800be000f
:100ee0008c807000b5ff37000768a30007003a0048
:100ef0000648a30003003200f1ff2700f0ff2f0097
:100f0000aeff37000d48a300030032006000b800b8
:100f10008c807000a9ff37000748a300040032004e
:100f200001f82700000020008c807000a3ff37002c
:100f3000760107000004fd008104fd000205780031
:100f4000720107000802be008a01780059ff3700cd
:100f50000160a000120220006240880097ff370065
:100f60000100e000120032000500e0001000320035
:100f7000889fbe008a9fbe008c9fbe000006eb00cb
:100f800001f8a3000300320060001000e0801800a8
:100f90000cf0a00005f8a30003003200600212006c
:100fa000e0821a000cf0a2008005eb0041ff370040
:100fb0006000b800020005000383680007002800f5
:100fc00007036300470ade000480a100c71ade00a1
:100fd0000580a100f70f20000720e1004200320049
:100fe0000728e10040003200889fbe008a9fbe00b3
:100ff0008c1f7800f107b200f307b2000400e00094
:10100000640032000170a0000500e00068003200ba
:101010000370a00085054200eb07b1000204b80090
:101020000302b8008484440060854a00020ab800c4
:10103000848444000a854a00030ab8000405450078
:10104000040033000804d0008984d2000a85d2004d
:101050008b05e9006158e1003d00350002102000d9
:10106000090161000308200089816100f707200061
:101070008783640008867300c84cde00c853dd0017
:10108000878474004855de000300e000060032004b
:1010900082037600040032008904e80060054d00f8
:1010a0000a88a3000c003a00f70f20000758e1005f
:1010b00044003d000a70a100c75ddd000a8575008f
:1010c0008a007300090078004f0678004f05be00c3
:1010d0004f04be00000006000a05d1008984d30039
:1010e0008b05e800f0ff3700881f780006047800c1
:1010f00090000700070278000001fd008101fd005b
:101100008c00070087027800850372000778a3002f
:10111000050032000001fd008101fd009f00070075
:101120004f04780000000600850372000748a30002
:1011300003003200f0ff2f00f1ff2700f8ff370017
:101140000000200001f8270088807000f4ff3700bd
:10115000880178004848dd00808171004848de0041
:10116000c850dd0001007000c850de0006047800a1
:101170000b0178001600070088807000d2ff37004e
:101180000500e00005003200170020003a000700cb
:101190009dff370081037000f9ff3a008600780058
:1011a0004f0678004f05be004f04be00000005004a
:1011b00083037100f9ff3200270020002e00070092
:1011c00094ff370001f8270086807000f4ff370095
:1011d0000100e00026003200610111007810e100fa
:1011e00023003c006022b8007010e10004003500cc
:1011f00080027800010078008000eb00700151004f
:101200000200e0000900340070031100062add002e
:10121000822ade008603dd00878272000200de0083
:10122000860bdd00070070008208de0084817100fb
:10123000f4ff27000482620084817100040028000a
:10124000848262006102600005f0a60000000600d2
:1012500004827100070032000000e800e0804800ce
:10126000000006000002be006000b800efff37007b
:101270006000b80000000600889fbe000004eb007c
:101280006138e10016003a000100e00008003a0071
:10129000c800de004800dd00880020000100e000fa
:1012a00003003a00c800de004800dd006804440086
:1012b0008184cf00e9845400060034008908dd00f1
:1012c000f08314008703de00878070000900dd00d2
:1012d00009044400610214004f04be00000006002f
:1012e0000300e00008003a00c811de004811dd00ec
:1012f000880020000300e00003003a00c811de006f
:101300004811dd00680444008384cf00e984540060
:10131000060034008919dd00f08314008713de0015
:10132000878171000911dd0009044400e102140005
:10133000e9ff37002700200001f0a7001700200078
:10134000470bde00f60fb200040032000643e8004f
:101350000a0032004702b3000000060001037800d3
:10136000f607b2000603700002003a000703b3005c
:10137000000006008702b3000000060001037800a9
:10138000f607b20006037000020032000770a000ea
:10139000000006000760a000000006000478a3001b
:1013a000040032000578a300030032000168a300a6
:1013b00001003a000200be000160a000000006002b
:1013c00081017000270032008002eb0001f8a300c9
:1013d0000300320060001000e080180015002000bb
:1013e000f40720000202420020003400f70320002e
:1013f0008703600006042000000363000208200049
:10140000000161004700de00c909dd0000807100b5
:10141000c708de000600e000080032008703710004
:10142000060032001000b0000180b0000188a30067
:1014300002003200c108de000402e800f107b20039
:10144000f30f20000320e10003003d004722dd00f0
:10145000810072002900370001f827000000eb002e
:10146000260037006000b800000006006802120085
:101470007f20e100020034006000b8001f00370048
:101480006011b8007020e100040035008001780090
:10149000010078008000eb00700252000400e000c0
:1014a00009003400f00312000719dd008419de0082
:1014b0000703dd00868171000400de00070bdd00fc
:1014c000060070008408de00f7ff270083836300b6
:1014d0008703710006002800030363000700320041
:1014e0000700e00003003a00610160000281730020
:1014f000020032001000b0000180b0000500a6001c
:101500000000060001f0a000000006004f0ade0007
:101510004709de00f107b200f20fb2000b00320003
:10152000f207b1000170a000c708dd00c901de00ac
:10153000838070004700dd000400a6000000060064
:1015400060001000e080180000000600810f7000ad
:1015500001003a00000006008182cf000500e00093
:1015600010003e008082cf00ee8242007028e10031
:101570000400390007003e00800078000000eb0006
:101580000e003700708312008600de000500dd00cb
:101590000a003700708352008600dd000000eb0077
:1015a00006003700e28252008508dd0070831200d9
:1015b0000603de00868070000500dd007507b000c0
:1015c0000501ea000400a60000000600600010000b
:1015d000e080180000000600889fbe008a9fbe00c1
:1015e000841f78007c0007004f0078001100330052
:1015f000f0ff2f00838f6c0006003b0004056500a0
:101600000a00a7000800370009f0a600100020001b
:1016100008003700820f5400838f5c0003003900fc
:101620001000200001003e000000200009f0a7008b
:101630000000ea004f05be004f04be000000e000bd
:1016400000000600881f7800030478000300e00013
:1016500007003d0060001000e080180060011900e4
:10166000e081190002003b0001f02d00030037006b
:101670000400070008f0a70001f0a0004f04780064
:1016800000000600889fbe008a9fbe000082700096
:101690000402710004827100260032000004be00c2
:1016a0000200be006011b8006b0920009502200006
:1016b0000182cf000a0039000541b1000082cf004d
:1016c000070039000541b1000982cf00040039004c
:1016d0000541b1000882cf00010039000541b10089
:1016e00005425200120032000a003b008281710064
:1016f000610164008100d1000080d3008984d3009f
:101700000884d3008b05e8000442e800f7ff3a00a4
:10171000070037000804440089844c00000048009a
:10172000818048008b05e9000442e900f9ff3a0096
:10173000030007004f05be004f04be000000060076
:1017400081002000618055000b003d000b0020004f
:1017500061fe2f000100e1001d0034008281710054
:10176000610164008904d1000884d3000000e8000e
:10177000faff3a007100200061006400030070006d
:10178000020060000900320061044400e0844c0063
:101790000988a500050032008b05e8006808e10013
:1017a00002003a008904d1000884d300f20f20001f
:1017b0000258e10005003d00c75ddd00f907b200f9
:1017c0008980750008007800000006000bf82700eb
:1017d0008b007800000005000004be0004fc070038
:1017e0000003be000405be000200be0000fc0700ae
:1017f000844f7500000006000000fa00cfb8970083
:1018000068815700df0107000080fa000000060031
:10181000040007005c0007000c010700340107000a
:101820008e003700ec874700889fbe008a9fbe006d
:101830008c9fbe008e1f780000067800010478009f
:10184000180790002805900098067800cdb79f00f3
:10185000b80590003202be002203be000400be00a4
:101860000601be004f18de006011b8008000eb00da
:10187000d0b79f00e1b79f00f2b79f0083bf9f00e2
:10188000800478000900e000060032006000b80023
:101890006011b80004025000858258000603590008
:1018a000878359000e00e000020035000d10a100f2
:1018b000cdb79f000900e00005003a004fb0970047
:1018c0000028a30002003a000038a3000200320002
:1018d0008a00e900010037008a007800f88157008b
:1018e000a200200008007800860007000900e00040
:1018f00003003a00cfb097000128a300080032008f
:101900000000e90000814500b1c2b3000900e00019
:1019100001003200d1c2b300014978000500370050
:101920000138a300030032000000e90001c2b30047
:1019300081757800480190000201e9000001510022
:10194000808045004fb297008a0178000c00780033
:10195000a40107009c0090000188a300040032004d
:1019600098009000810f500001003d0001007800b8
:101970004f0778004f06be004f05be004f04be0063
:10198000cf00b100000006000200fa00889fbe00f0
:101990008a9fbe00000578000104780002007800ec
:1019a00018019000a805900098007800b1bf9f0032
:1019b000b80490000200e000020035000110a10010
:1019c000b1bf9f00ea815700820020008b007800a1
:1019d0003002be002003be00080078004900070066
:1019e0003fb99700f0006100030032000000e900f9
:1019f00001c3b300817478003fb99700e80061002b
:101a0000030032000000e90001c2b30081747800d5
:101a1000480190000201e90000015100808044006b
:101a20003fba97008b0178000a0078006d0107002b
:101a30009a0090000188a3000400320098009000f2
:101a4000810f500001003d00010078004f05be00ed
:101a50004f04be000080fa0000000600ea8747003d
:101a6000889fbe008a9fbe008e1f78000004780009
:101a7000030078007287570084e2260055c72600cd
:101a8000049fbe00c3962200030f78006c875700a6
:101a9000004feb0011059000a10490009105780023
:101aa0000200e00002003200020778000100370067
:101ab000728757000000e00002003a000e00780034
:101ac000850307000a00e000030035008a0f50007c
:101ad000010036000a0078000b02780089017800c6
:101ae000000178008e007800080078003d010700b2
:101af0004f0778004f05be004f04be00af00b10095
:101b000000000600f4874700889fbe008a9fbe0041
:101b10008c9fbe008e1f78000605be000404be0028
:101b200081bf9f0082b79f00f3b79f00b000900075
:101b3000e1b79f001301780092b79f0090069000d4
:101b4000400690000c06e9000d00e00001003d0099
:101b50001d002000efb197000c8041000048eb0011
:101b60001e0020001f0037000c06e9000fb0970090
:101b7000cf80de006109b900a0b79f00b1b79f0018
:101b8000c2b79f00d3b79f000203be000002be0091
:101b90000800be000a01be005805070000077800d3
:101ba000efb097000c80400003c3b3000348470028
:101bb0008d06e9000fb897000000e90080bf9f0084
:101bc0002fb29700bfb297004fb39700dfb39700d3
:101bd0000800be000a01be00410507000205be0064
:101be0000004be000c00e0000d003200e00f5400c5
:101bf000e08f5c00e00f5d00e08f5d00daff3a00ef
:101c00000d00e000d8ff3c008fb897000100e00015
:101c1000030034001fb197000218a300d2ff3a005e
:101c20000e00e00002003a00ffb197001340a1004f
:101c30000c0078004f0778004f06be004f05be002d
:101c40004f04be004f01b100000006000200fa0080
:101c5000889fbe008a9fbe0080047800010478003f
:101c60000200780018019000280590009800780084
:101c7000b1bf9f00b80590000200e00002003500ef
:101c80000110a100b1bf9f00ea815700a20020000f
:101c90008a0078003002be002003be0008007800f1
:101ca00098ff0700480190000201e900000151007f
:101cb000808045003fba97008a01780009007800cb
:101cc000c8000700990090000188a30004003200ba
:101cd00098009000810f500001003d000100780045
:101ce0004f05be004f04be000080fa000000060051
:101cf000fa874700889fbe008a9fbe008c9fbe0067
:101d00008e1f780080047800010478008205780036
:101d1000180190002805900018077800b80090007e
:101d20000200e000020035000e10a10001003700a3
:101d30001200200070006700e0b79f000900320029
:101d40003b02be002b03be00e00f5200e08f5a00a2
:101d5000e00f5b00e08f5b00020032008a86e90042
:101d6000010037008a067800e8026700f5b79f0097
:101d7000010032008d06e9003b02be002b03be00cd
:101d8000e4af9f00f5af9f0086b79f0097b79f0015
:101d9000480690000c06e9000c8040000048eb006b
:101da000efb297007fb29700890378008104780032
:101db000d8af9f00020478008bbf9f008a0578008f
:101dc000034578002a0037000c06e9006fab970046
:101dd0006f006300e90f500002003c000003b000f8
:101de000010037007005b0000a03fb001604b100c3
:101df000f90f53000c003e00000378000650a000cd
:101e00001606b100f90f530007003e00b4b79f005b
:101e1000a5b79f00c7b79f0031030700cfb3970056
:101e2000afb297003fb2970080747e000804e900cb
:101e30008d06e9006fa89700ffa897000fb19700e3
:101e40009fb19700460020008301d1000281d3009a
:101e50008180d3000080d3000603e900faff3a0036
:101e6000e0af9f00f1af9f0082b79f0093b79f0044
:101e7000e10f56000f0036006fa89700ffa89700eb
:101e80000fb197009fb19700e00f5000e08f58000e
:101e9000e00f5900e08f5900cbff3a000800e00046
:101ea000c9ff3c000d00e000020034000e18a30042
:101eb000c5ff3a0089007800f4b79f0087047800d6
:101ec0005fac97008a4178000b0578008fbd9700c2
:101ed0000500e000100032003b02be002b03be00f4
:101ee000e4af9f00f5af9f0086b79f0097b79f00b4
:101ef000e00f5200e08f5a00e00f5b00e08f5b00c4
:101f0000050032000c06e90083707e000c06e90033
:101f100000c3b30080707e00ffb297000500e000b0
:101f2000030032000c06e90000c2b30080707e009e
:101f3000480190000201e9000c0151008c80400032
:101f40000e0278008a017800090078002500070059
:101f5000990090000188a3000400320098009000ce
:101f6000810f500001003d00010078004f0778000c
:101f70004f06be004f05be004f04be00af01b100ca
:101f8000000006008201780001017800f1ff2700bf
:101f900069023700889fbe008a1f7800800478009d
:101fa0004900900002047800800f540001003600c0
:101fb00000047800080178006a8544001a0078005f
:101fc000db0107001a004400000d7800e88444009b
:101fd000990c14000048eb004f0578004f04be0038
:101fe00000000600f2874700889fbe008a9fbe005f
:101ff0008c9fbe008e1f7800800478000105780059
:1020000002047800830578006107620002003a004c
:102010008b0f540008003900080178008a0078000e
:1020200009007800dbff07008b0f54000200390025
:10203000880578001e003700088655000c017800de
:10204000f00f5600010036000201200001022000be
:102050007e805700bd0107008c0678000500370020
:1020600002012000fe80570009007800c9ff070028
:10207000f0865600ef8f5600f9ff3e004461de0007
:1020800000ff2f000091b90002014600fe805700ba
:1020900009007800bfff07000e00e00004003a00ce
:1020a000080178008a00780009007800b9ff07006d
:1020b0000b0078004f0778004f06be004f05be00aa
:1020c0004f04be002f01b100000006000000050013
:1020d0000000050000000500000178000040eb0052
:1020e0008080fb008180400043a4200063c2780010
:1020f0000404e00003003a0050a4200060c078000f
:102100000000060092017800934f520004003a004c
:1021100050a4200060c078000309e80001003700e7
:102120000040e800ea4f5000edff360000000600d6
:10213000f6874700889fbe008a9fbe008c9fbe0026
:102140008e1f7800800478000104780083057800f1
:10215000040678000000eb00c0b79f008080eb0011
:10216000d1b79f00e0b79f00f2b79f0000082000a2
:1021700080bf9f0098007800010078000005eb0008
:10218000010037000a05e800304178000204e00051
:102190000300320053c2b300834f5100f9ff3a00ed
:1021a0000a00e000040032000a017800090078000b
:1021b00078ff0700180c45001807780050c2b300dc
:1021c0009e4f100033013a000e07e8000e0c780015
:1021d00010003700cfb097000100a0000b003700bf
:1021e000cfb097000110a00008003700cfb09700d3
:1021f0000120a00005003700cfb097000130a000fb
:1022000002003700cfb097000140a000c1b79f0087
:10221000000ce8001800780090407800b2c2b300cb
:1022200082cf5000f1ff320007003c0002c2b30031
:1022300082cf5000f0ff320032c2b30082cf500094
:1022400007003a00efff3700d2c2b30082cf500040
:10225000e0ff320002c3b30082cf5000e0ff320043
:10226000a2c2b30082cf50000d003a00000ce8007b
:102270001c80e900000e780010007800e0b79f0095
:102280000000e0000f003d00cfb097000100a20069
:10229000c1b79f000000ea00e0b79f0009003700c7
:1022a000e2010700e0b79f0001003700000ce800e2
:1022b000180078009000fb000103b100e98f500086
:1022c000faff36004fb097000008a300020032006a
:1022d0000010a100c0b79f0018007800e1c2b30051
:1022e00090cf100016003a008000eb00d1b79f009d
:1022f0000000e800000c7800a1c2b30090cf1000ed
:1023000006003a00000ce8001c80e900000e78008e
:1023100010007800d0b79f0009003700c301070004
:10232000d0b79f0001003700000ce80018007800cb
:102330009000fb000103b100e98f5000faff360066
:102340000800780064ff07008046780018007800d5
:102350001000fb00db01070091062000810f5000f8
:102360003800320012003c0041062000810f50006e
:10237000340032000a003c0011062000810f50009a
:102380002000320031062000810f50009a003200f8
:1023900051022000810f5000ae003a00a700370024
:1023a00071062000810f5000aa003c008200370017
:1023b00001072000810f50005c00320007003c0044
:1023c000e1062000810f500074003200f106200069
:1023d000810f50009f003a0039003700510720005c
:1023e000810f50002700320081072000810f50002c
:1023f0004200320031072000810f500095003a0062
:10240000850037008d80fb000c01780000fe2f0056
:102410000f004000b90107000000e0009c003200fe
:1024200018007800000ce8009041780002fe2f00b0
:102430000f014100f88057000900780024ff0700d1
:102440000e0037008d80fb008c0178001200200008
:1024500000fe2f000f004000c70107000000e00051
:102460008b003200180ce80002fe2f000f01410023
:10247000f880570009007800eafc070000054500d5
:10248000840037008d80fb008c0178000001eb0098
:1024900000fe2f000f004000b70107000000e00021
:1024a0007b003200180ce80002fe2f000f014100f3
:1024b000f880570009007800e4fd0700efff3700bf
:1024c0008d80fb008c0178000001eb0000fe2f00e6
:1024d0000f004000a80107000000e0006c0032007f
:1024e000180ce80002fe2f000f014100f880570091
:1024f0000900780024fd0700e0ff37008d80fb0015
:102500008c0178000001eb0000fe2f000f0040005e
:10251000990107000000e0005d003200180078001b
:10252000000ce80090417800160037008c0178001c
:102530000001eb00010f200000fe2f000f00400003
:102540008d0107000000e00051003200180ce80087
:102550000fb097009fb097002fb19700bfb19700c1
:10256000e00f5000e08f5800e00f5900e08f590055
:1025700003003a008001eb00e2a320004000370096
:1025800083c7b30002fe2f000f014100f8805700ff
:1025900009007800d6fd0700b8ff37000b014500a1
:1025a0008d80fb008c01780000fe2f000f004000a2
:1025b000ca010700360037008d80fb000c0178004f
:1025c00000fe2f000f0040004c0107000000e0005b
:1025d0002f00320018007800000ce80090417800cd
:1025e00002fe2f000f014100f8805700090078001b
:1025f000b7fe0700a1ff370000c8b30080cf560028
:1026000023003a00180ce8001c80e900000e780056
:10261000104078000d00370000c8b30080cf56008e
:102620001b003a00180ce8001c80e900000e78003e
:102630008001eb00100178001100370001c8b300e1
:1026400081cf560012003a00180ce800e0df9f002e
:102650000800370050c2b300e0df9f000e0c780086
:102660000000eb00c0b79f00e0b79f008080eb0048
:10267000d1b79f0013002000e2fd2f000f014100a1
:10268000f880570009007800f4fc07007bff370052
:10269000180ce8000a0078004f0778004f06be00cb
:1026a0004f05be004f04be006f01b10000000600e0
:1026b0008200fa00889fbe008a1f7800000578001b
:1026c00082047800c13f9f000004eb001000370037
:1026d0000902780088017800a2f72f000f0141005d
:1026e00081f72f008f8040000a00780090fe0700dd
:1026f00008004000880f500004003d00b004200096
:10270000d05288000084eb000400370000047800f9
:102710004f3897001004e000edff3a000800780001
:102720004f0578004f04be000080fa00000006004c
:102730008001780002003700b15978000201e900f9
:102740000200e000fcff3a0000000600889fbe0087
:102750008a9fbe00800478000200e0005a00320028
:1027600001407800814c780082814400f1f99f009b
:10277000e20f51005400360091449800a1449800a3
:10278000e1f99f00d1f99f00e60f51004e0036009d
:10279000b1449800c1f99f00e80f51004a0036008b
:1027a0000905ea00630565000a8444000a05510032
:1027b000c1ff2f00010565000080fb008000eb00d9
:1027c00012102000131020009d010700008cbe0095
:1027d0000a01440060b99f0071b99f00e80f5500dd
:1027e0003900360020049800310498004004980015
:1027f0005104980020b99f0031b99f0040b99f0053
:1028000051b99f00f80f55002f0036006004980062
:1028100071049800000c9800110c9800200c98008e
:10282000310c9800400c9800510c980020b19f008a
:1028300031b19f0040b19f0051b19f0060b19f0036
:1028400071b19f0000b99f0011b99f00640164003d
:102850007801410002044400020555006011b800ef
:102860000203be000002be000403be006022b800e6
:102870000000720081807200020173008381730086
:102880000f00370008027800009abe00029abe00ce
:10289000009abe000292be00000c9800110c980035
:1028a000220c9800330c9800400c9800510c9800b2
:1028b000620c9800730c98000a02b1000802b00084
:1028c000ff0f5500efff3e00090078004f05be00e6
:1028d0004f04be00000006008000780004003700ae
:1028e0003104e00002003a00000051000000060040
:1028f000010178000108a300f9ff3a008101780086
:1029000031017800f4ef2f00020242000281ea0058
:10291000020162000408280004016100f7ff320090
:1029200083007800010178003104e000fdff3a00e7
:102930000000510000000600f28747008e1f78005b
:1029400002027800030178000000e000020032007b
:102950000007780001003700728757008002eb0003
:102960000100e000010032008102e90070805700a0
:10297000060009000018eb007280570000a8eb0069
:102980002310200093bf9f00aebf9f00b1bf9f00e8
:10299000c5bf9f000100e00004003d00b00420001e
:1029a000d05288000080eb0005003700004feb009c
:1029b000eebf9f00debf9f00840078000300070089
:1029c0004f0778002f01b100000006000200fa0056
:1029d000881f780000047800e2bf9f0064815700e0
:1029e0000800780032ff0700980090000148a3001b
:1029f000010032000080eb004f0478000080fa00f4
:102a00000000060080007800100020000202200074
:102a1000828f500004003200e9805000e48f5000a3
:102a2000010036000000eb0000000600889fbe0099
:102a30008a1f7800800478000904780088047800f0
:102a4000394578000a00fb00eeff07000000e000b7
:102a5000f9ff3a00b0c2b300804f550005003200c4
:102a6000d0c2b3008000eb00804f550005003a0053
:102a7000020037008000eb00010037001100200049
:102a80000804e8000000eb00030037006a02b90008
:102a9000020052000003b0003801fb0003fd2f00cc
:102aa00082814100e98f5100f8ff36000100e0000b
:102ab00001003a000000ea004f0578004f04be0014
:102ac00000000600f1fb2f0080804000f98f5000cd
:102ad00001003e000050a00000000600f9ff370092
:102ae000f1f92f0080804000f98f500001003e0076
:102af000f005b20000000600f9ff3700881f7800db
:102b00000004780000082000808f50001700350076
:102b100010082000808f50000b0034003008200087
:102b2000808f500011003a009200780068805000b9
:102b3000000978003002be002003be00049cbe00e5
:102b40000694be00070037009202780064805200ad
:102b5000000978001000be009a000700009cbe002b
:102b60000294be0010002000010037000000eb00be
:102b70004f0478000000060084082000848f500075
:102b80001d0032000d003c0014082000848f50000e
:102b90002700320002003c00040820000400370037
:102ba00024082000848f50002a00320044082000ae
:102bb000848f500048003a003b003700040a200090
:102bc000848f50002c00320004003c0004092000d7
:102bd000848f500040003a002d003700020c200086
:102be000828f50001e003200020f2000828f5000a2
:102bf00039003a00300037009380e9000200e0001d
:102c000005003200810978001102fb00cfa2de002e
:102c1000612bb9002d00370081097800114278003e
:102c20000482fb008002eb006033b800270037000d
:102c300013027800e40052000200e0000a003200b3
:102c4000810978001102be004fabde0086037800d8
:102c50001e00370093027800e88052000e00370013
:102c600093027800e4805200810978001102be00ce
:102c70006033b800150037009380e90081097800bf
:102c800011027800cfa2de00612bb9000f003700df
:102c900013037800e8005300810978003102be0078
:102ca0002103be00090037009380e9000200e00024
:102cb00002003200f1ff37009380e90081097800bb
:102cc000110278008002eb006033b8000498be0067
:102cd0000690be001000050000000500440820001a
:102ce000848f5000270032000a003c0014082000a6
:102cf000848f50001c00320024082000848f500074
:102d00002600320004082000848f50002c003a0076
:102d10001c00370004092000848f50001f0032007f
:102d200004003c0084082000848f500024003a00f6
:102d300007003700040a2000848f50001100320081
:102d4000040c2000848f50001d003a00060037005c
:102d50009380e900810978009100780001087800eb
:102d600082487800150037009380e90081097800d7
:102d70009100780001087800cf91de008288be00c3
:102d80000e0037009380e9008109780091007800f7
:102d90000108780082087800080037009380e90075
:102da0008109780091007800010878006112b9006b
:102db000612bb9008498be008690be00100005000b
:102dc000000005008103780089f607000001be00bd
:102dd0006000b8000478a30013003a006220e1000c
:102de00015003e000d0039008301d1000281d3009f
:102df0008180d3008301d1000281d3008180d30080
:102e00008301d1000281d3008180d3000538b00056
:102e1000c42add00f300b2008381720007f0a7002e
:102e200003f0a0000000060083ff2700020020003e
:102e30006110b900f9ff370003ff2700f7ff3700e3
:102e4000020ab900001bb9000200b800810042006c
:102e50008100430000000600889fbe008a9fbe00dc
:102e600030044200b0844a0030054b0090854b008e
:102e70006000b1000898be000a90be000440e10066
:102e800005c8e10006d0e10007d8e10002003100ea
:102e9000680040001008e8004f05be004f04be0067
:102ea00000000600889fbe008a9fbe003004be005e
:102eb0002005be000418540005985c0006185d004b
:102ec00007985d00110020000440e10005c8e10002
:102ed00006d0e10007d8e100010039008000eb00d6
:102ee000108810004f05be004f04be000000060011
:102ef000f4874700889fbe008a9fbe008c9fbe005b
:102f00008e1f7800d0b79f00e1b79f00f2b79f00f7
:102f100083bf9f000605be000404be00cfae97002d
:102f20000000eb00c0b79f00b0b79f00a0b79f00a4
:102f300090b79f0080b79f00000678004fb09700c1
:102f4000000140000000e00006003d003c000700da
:102f50000f074700450007000f004000beff0700b5
:102f600005003700360007000f0747003f00070045
:102f70000f004000cbff07004fb797000e00e000a6
:102f80000c0035005fb29700efb297007fb3970057
:102f90008fbb970010002000010020006011b800d6
:102fa0000002720081827200020373008383730047
:102fb0001c0007000c06e80001042000810f5600e9
:102fc000deff3a000e00e00005003d000802be00f2
:102fd0000a03be0000fe2f000f0040009eff070006
:102fe0000d00e00005003a000fb297009fb2970075
:102ff0002fb39700bfb397000a0007005fb0970098
:10300000efb097007fb197008fb997004f07780016
:103010004f06be004f05be004f04be004f01b10079
:1030200000000600010007000000060094b79f00a2
:10303000a5b79f00b6b79f00c7b79f000000060066
:103040009fb097004f08de0002017000a2b79f00fa
:103050000fb097004f01de008180400081007100b9
:1030600091b79f000efe2f0000000600de007800e2
:103070004f09de00000040000000710080b79f0093
:103080006fa897004f01de0081804000010f7100a2
:103090000e0007004f3ade00000040000400700000
:1030a000e0af9f00090007000402420085824a0049
:1030b00006034b0087834b00dcff07000802be00bd
:1030c0000a03be0000fe2f00000006001fb297009a
:1030d000afb297003fb39700cfb397000000060050
:1030e000881f780018002000881f780080ff0700e4
:1030f0008f87e9004f04780000000600801feb0076
:103100007bff07008f87e90000000600889fbe0054
:103110008a9fbe00e00f5000e08f5800e00f59007a
:10312000e08f59000c003d006044b8006055b800c5
:103130000000540081805c0002015d0083815d001d
:10314000180020001500070008003d0018000700c7
:103150000004eb00050037000004eb000f0007003f
:1031600002003d001200070018002000dcff0700ed
:103170000800e000060032006022b8006033b800aa
:103180000000520081805a0002015b0083815b00d5
:103190004f05be004f04be0000000600e00f5200c5
:1031a000e08f5a00e00f5b00e08f5b00000006003c
:1031b0006044b8006055b8000402540085825c0089
:1031c00006035d0087835d0000000600889fbe0047
:1031d0008a9fbe008c1f7800e00f5000e08f5800df
:1031e000e00f5900e08f59000d003d006044b80029
:1031f0006055b8000000540081805c0002015d0051
:1032000083815d001c0020000820e10009a8e10086
:103210000ab0e1000bb8e1000d003d0008003700e6
:103220000006eb00e00f5200e08f5a00e00f5b0059
:10323000e08f5b0006003d006044b8006055b800b8
:103240000402540085825c0006035d0087835d00f4
:10325000aaff07000c00e000060032006022b80060
:103260006033b8000000520081805a0002015b0008
:1032700083815b004f0678004f05be004f04be00ff
:043280000000060044
:020000040000fa
:1032840020250000642c000020250000642c000090
:0c32940020250000643b00000a00000040
:020000040000fa
:1032a0000400fa00000f78000e80e80001087800a2
:1032b000c1a1a900010e8000f0f02f000080600085
:1032c000000e8800010e800030ff2f00008060009b
:1032d000000e8800010e8000c0ff2f0000806000fb
:1032e000000e880000702000400e88001e0078004c
:1032f0000000e00001003d00d501a800000024000e
:103300001e0060000000e00001003200d521a8008e
:10331000000022001e0060000000e00001003200fa
:10332000d541a800000021001e0060000000e00060
:1033300001003200d561a800008020001e0060005e
:103340000000e00001003200d581a800004020000c
:103350001e0060000000e00001003200d5a1a800be
:103360000e80e8001000780009000700d621ef0069
:10337000d821ef00da21ef00ca41a900ca21a80034
:10338000ca01a900c1e1a8000080fa0000000600ff
:103390000800fa00e6004700800878008040eb0053
:1033a000640047000148780066004700100078007c
:1033b0008000eb000001be0060532700c125200003
:1033c000b7f407000002be00640047001040780018
:1033d0000080fb0000004000110020000008dd001c
:1033e000cf80de000001be000400be0015f507001e
:1033f0000081eb008081eb00021f40000397480032
:1034000064004700104078008040e80064004700f6
:1034100001487800f0ff2700010020001e01be00d7
:10342000800f5100818f590004003600640047006e
:1034300010407800e34f5000dbff3600f0ff27001c
:10344000010020001e01be00800f5100818f590035
:1034500003003600f0ff270001002000008fbe00af
:1034600064004700104078000040e90063406000bd
:103470000080fb00630060004200dd00020e80005f
:1034800031ff2f008100610001007000000e8800f4
:103490001e00780000f0a100200e88000080fa00d5
:1034a000000006000600fa000e81e800000978001e
:1034b000640047000108780064004700900078002d
:1034c00000712200808f500003003600017122003d
:1034d0006400470001087800200e80008000eb00a7
:1034e000000140008181480064004700100078001e
:1034f0008000eb00009ab90004027800028bb9004a
:1035000086027800050242000010b8000102420065
:1035100084007800027122000300200060f407009c
:10352000000f78000e80e8009000780000002c006a
:10353000008060000000e000020032009e00780081
:10354000b10e88000e80e800900078000000230093
:10355000008060000000e000020032009e00780061
:10356000c10e88000e80e8009000780000c02000a6
:10357000008060000000e000020032009e00780041
:10358000d10e88000080fa00000006000400fa0056
:103590008e80e80080087800f0002000000f78009e
:1035a00011003700100020009e0078000100dd00af
:1035b0008e80e80091007800010060000000e000cb
:1035c00008003200f10020001e8050000080d10071
:1035d000110020000008dd00410e80000080700016
:1035e000400e88001e8fe9001e007800e90f500091
:1035f000ecff3c00e0002000000f780012003700d4
:10360000100020009e0078000100dd008e80e800a0
:1036100091007800010060000000e0000900320025
:10362000e10020001e8050000080d10064004000b6
:10363000110020000008dd00410e800000807000b5
:10364000400e88001e8fe9001e007800e90f500030
:10365000ebff3c000080fa00000006000400fa00c6
:103660008e80e80080087800f0002000000f7800cd
:1036700012003700100020009e0078000100dd00dd
:103680008e80e80091007800010060000000e000fa
:1036900009003200f10020001e8050000080d1009f
:1036a000110020000008dd000080ea00410e8000cb
:1036b00001006000400e88001e8fe9001e007800a7
:1036c000e90f5000ebff3c00e0002000000f780005
:1036d00013003700100020009e0078000100dd007c
:1036e0008e80e80091007800010060000000e0009a
:1036f0000a003200e10020001e8050000080d1004e
:1037000064004000110020000008dd000080ea0095
:10371000410e800001006000400e88001e8fe9000d
:103720001e007800e90f5000eaff3c000080fa001c
:10373000000006001400fa004c0307004116800048
:10374000f0ff2000008060004016880000202c0060
:10375000110020009f010700a00020004202070086
:10376000000220006b030700813e20000040200083
:10377000cbfe07000040200084ff07008000eb0024
:1037800064004700010878000000eb00000f78009b
:10379000c11220000e80e800010878000300370005
:1037a0000000000001003700000000005000200071
:1037b0006e0307008000780066004700010878006b
:1037c0006600470010007800a20207008000780021
:1037d0006400470001087800803e20009e007800c9
:1037e000808f500004003a00411f20000e80e80046
:1037f0000108780007003700007d20009e00780057
:10380000808f500003003a00c11220000e80e800b3
:10381000010878000e80e8009000780064004700fe
:103820001000780031000700800078006800470031
:10383000010878007e0207001e0fe80070bb200020
:103840009e007800808f5000d5ff3e001e0178005a
:10385000d0cc2c000010b8004308de006a00b9008c
:1038600000007800000051000000e000ceff3a00a8
:10387000a3c42100640047001001780068004700dd
:10388000900078000e80e80010007800030001002e
:10389000c6ff37002000fa00fa01470080097800cf
:1038a0007c004700010878007e004700020878008d
:1038b0007e004700901f78007c004700901f780032
:1038c0007a004700901f780020942900801f78001c
:1038d0000e007800c8f70700e88757000e00780050
:1038e000960107000080fa00000006001200fa00ae
:1038f000889fbe006e0147000009780070004700f5
:103900000108780070004700900078006e004700c2
:1039100010007800808050006400470001087800a3
:103920006400470010007800cf80de00abf3070092
:10393000f226210033a823009ff507000002be00f5
:1039400040408000514080000001be000400be00e5
:10395000d5f30700404088005140880064004700cc
:1039600010007800cf80de009cf30700c21e250007
:1039700083e3230090f50700660147000089be003d
:103980004040800051408000a2702d00330e240082
:1039900089f507006a0147000089be0064004700fe
:1039a00010007800cf80de008cf30700c21e2500d7
:1039b00083e3230080f507000004be004040800040
:1039c00051408000a2702d00330e24007af50700cc
:1039d0000001be000800be00b3f30700008fbe0068
:1039e00018c0b30002002000832c24001e00be007b
:1039f0003cf307000000e00001003c000044eb0045
:103a00000804e0001100320000002000812c240096
:103a1000008fbe004840800059408000640047008d
:103a200010007800cf80de006cf30700f226210042
:103a300033a8230060f507000001be000800be00a7
:103a400090f30700404088005140880018c0b30040
:103a50006011b8001e00be0020f307000000e00067
:103a6000010035000044eb000804e00010003200c3
:103a70006000b800008fbe004840800059408000c0
:103a80006400470010007800cf80de0053f3070089
:103a9000f226210033a8230047f507000001be00ed
:103aa0000800be0077f307004040880051408800be
:103ab0001e00be000df307008000780040062000c5
:103ac0000088b900000078008000780000402000e5
:103ad00074fe07001e00be0004f30700000078001b
:103ae0004f04be000080fa00000006000400fa0047
:103af000000f78000e80e80001087800c1a5a90039
:103b0000012e8000f0f02f0000806000002e880061
:103b1000012e800030ff2f0000806000002e880002
:103b2000012e8000c0ff2f0000806000002e880062
:103b300000702000402e8800002020001e00600041
:103b40000000e00001003200d505a80000102000b0
:103b50001e0060000000e00001003200d525a80032
:103b60000e80e8001000780007000700d625ef005f
:103b7000ca41a900ca21a800ca01a900c1e5a8003c
:103b80000080fa00000006000800fa00e600470086
:103b9000800878008040eb0064004700014878000e
:103ba00066004700100078008000eb000001be00b6
:103bb00060532700c1252000b9f207000002be00b3
:103bc00064004700104078000080fb0000004000c7
:103bd000110020000008dd00cf80de000001be00e3
:103be0000400be0017f307000081eb008081eb00aa
:103bf000021f40000397480064004700104078000f
:103c00008040e8006400470001487800f0ff27008a
:103c1000010020001e01be00800f5100818f59005d
:103c2000040036006400470010407800e34f500065
:103c3000dbff3600f0ff2700010020001e01be0060
:103c4000800f5100818f590003003600f0ff2700dc
:103c500001002000008fbe00640047001040780083
:103c60000040e900634060000080fb0063006000ea
:103c70004200dd00022e800031ff2f008100610034
:103c800001007000002e88001e00780000f0a100e6
:103c9000202e88000080fa00000006000600fa00ce
:103ca0000e81e800000978006400470001087800f0
:103cb000640047009000780000712200808f50005f
:103cc00003003600017122006400470001087800fb
:103cd000202e80008000eb00000140008181480020
:103ce00064004700100078008000eb00009ab900e3
:103cf00004027800028bb9008602780005024200b7
:103d00000010b80001024200840078000271220015
:103d10000300200062f20700000f78000e80e80028
:103d20009000780000302000008060000000e0007b
:103d3000020032009e007800b12e88000080fa0058
:103d4000000006000200fa00000f780000202000aa
:103d50001e0060000000e00003003200402e8000e2
:103d60000000a000402e8800001020001e0060000f
:103d70000000e00003003200402e80000040a00060
:103d8000402e88000080fa00000006000200fa00c1
:103d9000000f7800002020001e0060000000e000fe
:103da00003003200402e80000000a100402e880059
:103db000001020001e0060000000e0000300320040
:103dc000402e80000040a100402e88000080fa00b4
:103dd000000006000400fa00008fbe001e01be00b5
:103de00060532700c125200096f207004c09dd0032
:103df0004400de0000007100c408de00000078000e
:103e00000000e900401188002002a9000111800093
:103e100090ff2f00008060000011880020a2a90000
:103e20002062a90001118000f0cf2f000080600007
:103e30000011880021a2a90023a2a90023e2a80062
:103e400011118000f0f32f00008060001011880035
:103e50005105800080ff2f00008060005000b300fb
:103e60005005880041058000f0ff28008080600038
:103e70000000260001007000400588008580a90030
:103e80008560a9009580a9009560a80021e2a8009e
:103e90002342a800113a8000f00b2000008160004e
:103ea0006004200071052000237420008049780000
:103eb00081497800824978002135800000fe2f007a
:103ec000008060005000b30020358800213680005b
:103ed00000fe2f00008060003000b3002036880014
:103ee000103a8000000178000260a0006004200009
:103ef00071052000237420008049780081497800f2
:103f000082497800401680000050a00040168800ca
:103f10000080fa00000006000000fa000000000027
:103f20003140800020408000808f5000fcff3a002c
:103f3000480007000080fa00000006000200fa00b6
:103f4000000f7800040037001e0078001040780051
:103f5000200007001e0fe8001e00780010407800c7
:103f60000004e000f8ff3a003a0007000080fa0081
:103f7000000006000200fa0031408000204080006e
:103f8000808f50000e003200314080008090200071
:103f90000100400010407800004f78003040800061
:103fa0000000e8003040880031408000a00f200071
:103fb000808f500004003a000628ef00020037000e
:103fc0000040eb00004f78001e4078000080fa00af
:103fd000000006000200fa00004f78000040800058
:103fe0000000e80011408000810f500007003200ff
:103ff00001408000900f2000808f500007003a00a1
:10400000104080000000e00004003a0050168000dc
:1040100000c0a100501688000c003700014080004d
:10402000e0802000010040001e4878000040800031
:104030000000e8000040880001408000a00f200040
:10404000808f500001003a000028ef000080fa0045
:10405000000006000000fa009580a8008580a800f6
:104060000080fa00000006000400fa008e80e800dc
:10407000800878000021ef000e80e8001000780032
:10408000ef0f500016003e000040eb00004f78009c
:104090000e80e800100078008000eb0062532700db
:1040a0000289b90002017800c32520000382b9000b
:1040b0008401780003014100635327000300b80026
:1040c00001014100820078000271220003002000fb
:1040d000dcf1070000007800100888004d00370070
:1040e0000e80e8009000780030082000808f50009b
:1040f00016003e0010c0b300004f78000e80e800ac
:10410000100078008000eb0062ea28000289b90004
:1041100002017800b30420000382b9008401780012
:104120000301410063ea28000300b80001014100d7
:10413000820078000271220003002000c1f1070014
:104140000000780010088800320037000e80e80078
:104150009000780010422000808f500015003e0033
:1041600020c0b300004f78000e80e80010007800f7
:104170008000eb00421d27000289b900020178008f
:104180006902b9008401780003014100431d270042
:104190000300b80001014100820078000271220092
:1041a00003002000a7f10700000078001008880035
:1041b000180037000e80e80090007800a008210069
:1041c000808f500013003e0030c0b300004f7800d5
:1041d0000e80e800100078008000eb0052c7250038
:1041e0000289b900020178008001d000030141007a
:1041f00053c725000300b800010141008200780088
:1042000002712200030020008ef1070000007800f8
:10421000100888008460a9001e80fb004400dd00b7
:1042200000f0a000200888000080fa0000000600ce
:104230000000fa0000000000200480006800600018
:104240000000e000fcff32008460a9000080fa005a
:10425000000006000600fa00889fbe008a9fbe008c
:10426000e4004700800878000000eb00000f7800b1
:10427000010037001e0fe8001e00e800800040002b
:1042800020a020000080400010007800e4004700db
:1042900091007800810f5000f6ff39001e00780071
:1042a0008000400000a22000008040001000780044
:1042b000cf80de0049f107000004be001e00e800c8
:1042c0008000400000a22000008040001001780023
:1042d0001e0078008000400000a220000080400006
:1042e0001000780000005100cf80de003bf1070095
:1042f0000005be001e00e8008000400020a0200055
:1043000000804000100178001e007800800040000e
:1043100020a0200000804000100078000000510024
:10432000cf80de002df107000001be000a00be00b4
:1043300042f207000005be001e0078008000400029
:1043400020a020000080400010007800e40047001a
:1043500091007800008050008000eb0022f10700ff
:104360000001be000a00be0013f307000001be00fa
:104370000800be004cf10700fdf007000e81e800c8
:10438000000978000e80e800100078004f05be009c
:0c4390004f04be000080fa000000060090
:020000040000fa
:10439c000e080000f40100000000000000080000fe
:1043ac0008000000000000000808000004000000e5
:1043bc0000000000020a00003c00000002000000a7
:1043cc0000007c0000850000ae00d90000f8000061
:1043dc0061019c00010f02006c02aa0002c90200dc
:1043ec003503e0000300040000003a00004b00001d
:1043fc0066007800009a0000ba004000017c0100c1
:10440c001c02800002bc020034034c0004ff0400b8
:10441c000c08000002000000000000003e0a000032
:10442c001c00000002000000286e69006c290000ce
:10443c0068076c00094c83006a907400a07ac00075
:10444c0000806800880084006c82000081000000fd
:10445c005a0a0000020000000000000000000000ea
:020000040000fa
:10446c000000fa00213a800000fe2f00008060005e
:10447c00203a880090022000303a8800213a8000cf
:10448c00f0f32f0000806000203a8800120020001a
:10449c0080072000a1092000337420008049780097
:1044ac008149780082497800103a80000001780038
:1044bc000200a0006004200071052000237420007d
:1044cc00804978008149780082497800000000001a
:1044dc00113a80000000270080806000000021005d
:1044ec00808f5000faff3a0000000000113a800063
:1044fc0000022000008060000000e000fbff3200a2
:10450c000080fa00000006000200fa00000f78009c
:10451c009e007800638060000116800000807000af
:10452c00001688001e0078004200de006f0060005c
:10453c004116800000807000401688001e80ea0042
:10454c006019880090102000201988002223ef00a9
:10455c00000e2800001988000080fa0000000600f8
:10456c000200fa00000f78009e00780041198800c4
:10457c002023a80085a0a9000000000021048000d1
:10458c0000002200008060000000e000fbff320011
:0c459c00001880000080fa0000000600fb
:020000040000fa
:0200000401f009
:04000000ffffff00ff
:020000040000fa
:0200000401f009
:04000800ffffff00f7
:020000040000fa
:0200000401f009
:04000c0000000000f0
:020000040000fa
:0200000401f009
:0400100043000000a9
:020000040000fa
:0200000401f009
:040014005f00000089
:020000040000fa
:0200000401f009
:04001800f7000000ed
:020000040000fa
:0200000401f009
:04001c00dfff000002
:00000001FF
